{
  "contractName": "Certificates",
  "abi": [
    {
      "anonymous": false,
      "inputs": [
        {
          "indexed": false,
          "internalType": "bytes32",
          "name": "_certificateId",
          "type": "bytes32"
        }
      ],
      "name": "certificateGenerated",
      "type": "event"
    },
    {
      "inputs": [
        {
          "internalType": "bytes32",
          "name": "",
          "type": "bytes32"
        }
      ],
      "name": "certificates",
      "outputs": [
        {
          "internalType": "string",
          "name": "student_name",
          "type": "string"
        },
        {
          "internalType": "string",
          "name": "student_id",
          "type": "string"
        },
        {
          "internalType": "string",
          "name": "issuer",
          "type": "string"
        },
        {
          "internalType": "uint256",
          "name": "expiration_date",
          "type": "uint256"
        }
      ],
      "stateMutability": "view",
      "type": "function",
      "constant": true
    },
    {
      "inputs": [
        {
          "internalType": "string",
          "name": "_id",
          "type": "string"
        },
        {
          "internalType": "string",
          "name": "_student_name",
          "type": "string"
        },
        {
          "internalType": "string",
          "name": "_student_id",
          "type": "string"
        },
        {
          "internalType": "string",
          "name": "_issuer",
          "type": "string"
        },
        {
          "internalType": "string[]",
          "name": "_completed_modules",
          "type": "string[]"
        },
        {
          "internalType": "uint256",
          "name": "_expiration_date",
          "type": "uint256"
        }
      ],
      "name": "generateCertificate",
      "outputs": [],
      "stateMutability": "nonpayable",
      "type": "function"
    },
    {
      "inputs": [
        {
          "internalType": "string",
          "name": "_id",
          "type": "string"
        }
      ],
      "name": "getData",
      "outputs": [
        {
          "internalType": "string",
          "name": "",
          "type": "string"
        },
        {
          "internalType": "string",
          "name": "",
          "type": "string"
        },
        {
          "internalType": "string",
          "name": "",
          "type": "string"
        },
        {
          "internalType": "string[]",
          "name": "",
          "type": "string[]"
        },
        {
          "internalType": "uint256",
          "name": "",
          "type": "uint256"
        }
      ],
      "stateMutability": "view",
      "type": "function",
      "constant": true
    }
  ],
  "bytecode": "0x608060405234801561001057600080fd5b50611041806100206000396000f3fe608060405234801561001057600080fd5b50600436106100415760003560e01c8063199f703914610046578063742f068814610062578063ae55c88814610095575b600080fd5b610060600480360381019061005b9190610ae3565b6100c9565b005b61007c60048036038101906100779190610c32565b6101d0565b60405161008c9493929190610cf6565b60405180910390f35b6100af60048036038101906100aa9190610d50565b610398565b6040516100c0959493929190610ea5565b60405180910390f35b60006100d4876106dc565b90506040518060a0016040528087815260200185815260200186815260200184815260200183815250600080838152602001908152602001600020600082015181600001908051906020019061012b929190610706565b506020820151816001019080519060200190610148929190610706565b506040820151816002019080519060200190610165929190610706565b50606082015181600301908051906020019061018292919061078c565b50608082015181600401559050507ff54e0f0055ffae318a21890316ed523f8a60aa59aaa279dfdcae7176155ec0db816040516101bf9190610f23565b60405180910390a150505050505050565b60006020528060005260406000206000915090508060000180546101f390610f6d565b80601f016020809104026020016040519081016040528092919081815260200182805461021f90610f6d565b801561026c5780601f106102415761010080835404028352916020019161026c565b820191906000526020600020905b81548152906001019060200180831161024f57829003601f168201915b50505050509080600101805461028190610f6d565b80601f01602080910402602001604051908101604052809291908181526020018280546102ad90610f6d565b80156102fa5780601f106102cf576101008083540402835291602001916102fa565b820191906000526020600020905b8154815290600101906020018083116102dd57829003601f168201915b50505050509080600201805461030f90610f6d565b80601f016020809104026020016040519081016040528092919081815260200182805461033b90610f6d565b80156103885780601f1061035d57610100808354040283529160200191610388565b820191906000526020600020905b81548152906001019060200180831161036b57829003601f168201915b5050505050908060040154905084565b6060806060806000806103aa876106dc565b905060008060008381526020019081526020016000206040518060a00160405290816000820180546103db90610f6d565b80601f016020809104026020016040519081016040528092919081815260200182805461040790610f6d565b80156104545780601f1061042957610100808354040283529160200191610454565b820191906000526020600020905b81548152906001019060200180831161043757829003601f168201915b5050505050815260200160018201805461046d90610f6d565b80601f016020809104026020016040519081016040528092919081815260200182805461049990610f6d565b80156104e65780601f106104bb576101008083540402835291602001916104e6565b820191906000526020600020905b8154815290600101906020018083116104c957829003601f168201915b505050505081526020016002820180546104ff90610f6d565b80601f016020809104026020016040519081016040528092919081815260200182805461052b90610f6d565b80156105785780601f1061054d57610100808354040283529160200191610578565b820191906000526020600020905b81548152906001019060200180831161055b57829003601f168201915b5050505050815260200160038201805480602002602001604051908101604052809291908181526020016000905b828210156106525783829060005260206000200180546105c590610f6d565b80601f01602080910402602001604051908101604052809291908181526020018280546105f190610f6d565b801561063e5780601f106106135761010080835404028352916020019161063e565b820191906000526020600020905b81548152906001019060200180831161062157829003601f168201915b5050505050815260200190600101906105a6565b50505050815260200160048201548152505090506000816080015114156106ae576040517f08c379a00000000000000000000000000000000000000000000000000000000081526004016106a590610feb565b60405180910390fd5b8060000151816020015182604001518360600151846080015196509650965096509650505091939590929450565b6000808290506000815114156106f8576000801b915050610701565b60208301519150505b919050565b82805461071290610f6d565b90600052602060002090601f016020900481019282610734576000855561077b565b82601f1061074d57805160ff191683800117855561077b565b8280016001018555821561077b579182015b8281111561077a57825182559160200191906001019061075f565b5b50905061078891906107ec565b5090565b8280548282559060005260206000209081019282156107db579160200282015b828111156107da5782518290805190602001906107ca929190610706565b50916020019190600101906107ac565b5b5090506107e89190610809565b5090565b5b808211156108055760008160009055506001016107ed565b5090565b5b808211156108295760008181610820919061082d565b5060010161080a565b5090565b50805461083990610f6d565b6000825580601f1061084b575061086a565b601f01602090049060005260206000209081019061086991906107ec565b5b50565b6000604051905090565b600080fd5b600080fd5b600080fd5b600080fd5b6000601f19601f8301169050919050565b7f4e487b7100000000000000000000000000000000000000000000000000000000600052604160045260246000fd5b6108d48261088b565b810181811067ffffffffffffffff821117156108f3576108f261089c565b5b80604052505050565b600061090661086d565b905061091282826108cb565b919050565b600067ffffffffffffffff8211156109325761093161089c565b5b61093b8261088b565b9050602081019050919050565b82818337600083830152505050565b600061096a61096584610917565b6108fc565b90508281526020810184848401111561098657610985610886565b5b610991848285610948565b509392505050565b600082601f8301126109ae576109ad610881565b5b81356109be848260208601610957565b91505092915050565b600067ffffffffffffffff8211156109e2576109e161089c565b5b602082029050602081019050919050565b600080fd5b6000610a0b610a06846109c7565b6108fc565b90508083825260208201905060208402830185811115610a2e57610a2d6109f3565b5b835b81811015610a7557803567ffffffffffffffff811115610a5357610a52610881565b5b808601610a608982610999565b85526020850194505050602081019050610a30565b5050509392505050565b600082601f830112610a9457610a93610881565b5b8135610aa48482602086016109f8565b91505092915050565b6000819050919050565b610ac081610aad565b8114610acb57600080fd5b50565b600081359050610add81610ab7565b92915050565b60008060008060008060c08789031215610b0057610aff610877565b5b600087013567ffffffffffffffff811115610b1e57610b1d61087c565b5b610b2a89828a01610999565b965050602087013567ffffffffffffffff811115610b4b57610b4a61087c565b5b610b5789828a01610999565b955050604087013567ffffffffffffffff811115610b7857610b7761087c565b5b610b8489828a01610999565b945050606087013567ffffffffffffffff811115610ba557610ba461087c565b5b610bb189828a01610999565b935050608087013567ffffffffffffffff811115610bd257610bd161087c565b5b610bde89828a01610a7f565b92505060a0610bef89828a01610ace565b9150509295509295509295565b6000819050919050565b610c0f81610bfc565b8114610c1a57600080fd5b50565b600081359050610c2c81610c06565b92915050565b600060208284031215610c4857610c47610877565b5b6000610c5684828501610c1d565b91505092915050565b600081519050919050565b600082825260208201905092915050565b60005b83811015610c99578082015181840152602081019050610c7e565b83811115610ca8576000848401525b50505050565b6000610cb982610c5f565b610cc38185610c6a565b9350610cd3818560208601610c7b565b610cdc8161088b565b840191505092915050565b610cf081610aad565b82525050565b60006080820190508181036000830152610d108187610cae565b90508181036020830152610d248186610cae565b90508181036040830152610d388185610cae565b9050610d476060830184610ce7565b95945050505050565b600060208284031215610d6657610d65610877565b5b600082013567ffffffffffffffff811115610d8457610d8361087c565b5b610d9084828501610999565b91505092915050565b600081519050919050565b600082825260208201905092915050565b6000819050602082019050919050565b600082825260208201905092915050565b6000610de182610c5f565b610deb8185610dc5565b9350610dfb818560208601610c7b565b610e048161088b565b840191505092915050565b6000610e1b8383610dd6565b905092915050565b6000602082019050919050565b6000610e3b82610d99565b610e458185610da4565b935083602082028501610e5785610db5565b8060005b85811015610e935784840389528151610e748582610e0f565b9450610e7f83610e23565b925060208a01995050600181019050610e5b565b50829750879550505050505092915050565b600060a0820190508181036000830152610ebf8188610cae565b90508181036020830152610ed38187610cae565b90508181036040830152610ee78186610cae565b90508181036060830152610efb8185610e30565b9050610f0a6080830184610ce7565b9695505050505050565b610f1d81610bfc565b82525050565b6000602082019050610f386000830184610f14565b92915050565b7f4e487b7100000000000000000000000000000000000000000000000000000000600052602260045260246000fd5b60006002820490506001821680610f8557607f821691505b60208210811415610f9957610f98610f3e565b5b50919050565b7f4e6f206461746120657869737473000000000000000000000000000000000000600082015250565b6000610fd5600e83610c6a565b9150610fe082610f9f565b602082019050919050565b6000602082019050818103600083015261100481610fc8565b905091905056fea26469706673582212207562592ada9169b28498feb6dddca89268d0e2a8cc90a15410a294847b2e7e3d64736f6c63430008090033",
  "immutableReferences": {},
  "source": "// SPDX-License-Identifier: MIT\r\npragma solidity >=0.4.22 <0.9.0;\r\n\r\ncontract Certificates {\r\n\r\n    struct Certificate {\r\n        string student_name;\r\n        string student_id;\r\n        string issuer;\r\n        string[] completed_modules;\r\n        uint256 expiration_date;\r\n    }\r\n\r\n    mapping(bytes32 => Certificate) public certificates;\r\n\r\n    event certificateGenerated(bytes32 _certificateId);\r\n\r\n    function stringToBytes32(string memory source) private pure returns (bytes32 result) {\r\n        bytes memory tempEmptyStringTest = bytes(source);\r\n        if (tempEmptyStringTest.length == 0) {\r\n            return 0x0;\r\n        }\r\n        assembly {\r\n                result := mload(add(source, 32))\r\n        }\r\n    }\r\n\r\n    function generateCertificate(\r\n        string memory _id,\r\n        string memory _student_name,\r\n        string memory _student_id,\r\n        string memory _issuer, \r\n        string[] memory _completed_modules, \r\n        uint256 _expiration_date) public {\r\n        bytes32 byte_id = stringToBytes32(_id);\r\n        \r\n        certificates[byte_id] = Certificate(_student_name, _issuer, _student_id, _completed_modules, _expiration_date);\r\n        emit certificateGenerated(byte_id);\r\n    }\r\n\r\n    function getData(string memory _id) public view returns(string memory, string memory, string memory, string[] memory, uint256) {\r\n        bytes32 byte_id = stringToBytes32(_id);\r\n        Certificate memory temp = certificates[byte_id];\r\n        require(temp.expiration_date != 0, \"No data exists\");\r\n        return (temp.student_name, temp.student_id, temp.issuer, temp.completed_modules, temp.expiration_date);\r\n    }\r\n\r\n}\r\n",
  "sourcePath": "C:\\Users\\linke\\Desktop\\FYP\\Blockchain\\Project2\\tarcms\\src\\contracts\\Certificates.sol",
  "compiler": {
    "name": "solc",
    "version": "0.8.9+commit.e5eed63a.Emscripten.clang"
  },
  "schemaVersion": "3.4.3",
  "updatedAt": "2021-11-17T18:00:10.294Z",
  "networkType": "ethereum",
  "devdoc": {
    "kind": "dev",
    "methods": {},
    "version": 1
  },
  "userdoc": {
    "kind": "user",
    "methods": {},
    "version": 1
  }
}